{
    "_format": "hh-sol-artifact-1",
    "contractName": "ByteBeatPortal",
    "sourceName": "contracts/ByteBeatPortal.sol",
    "abi": [
        {
            "inputs": [],
            "stateMutability": "nonpayable",
            "type": "constructor"
        },
        {
            "inputs": [],
            "name": "getFormula",
            "outputs": [
                {
                    "internalType": "string",
                    "name": "",
                    "type": "string"
                }
            ],
            "stateMutability": "view",
            "type": "function"
        },
        {
            "inputs": [
                {
                    "internalType": "string",
                    "name": "newFormula",
                    "type": "string"
                }
            ],
            "name": "updateFormula",
            "outputs": [],
            "stateMutability": "nonpayable",
            "type": "function"
        }
    ],
    "bytecode": "0x608060405234801561001057600080fd5b5061003c604051806060016040528060258152602001610a016025913961004160201b6102291760201c565b6101c4565b6100dd816040516024016100559190610142565b6040516020818303038152906040527f41304fac000000000000000000000000000000000000000000000000000000007bffffffffffffffffffffffffffffffffffffffffffffffffffffffff19166020820180517bffffffffffffffffffffffffffffffffffffffffffffffffffffffff83818316178352505050506100e060201b60201c565b50565b60008151905060006a636f6e736f6c652e6c6f679050602083016000808483855afa5050505050565b600061011482610164565b61011e818561016f565b935061012e818560208601610180565b610137816101b3565b840191505092915050565b6000602082019050818103600083015261015c8184610109565b905092915050565b600081519050919050565b600082825260208201905092915050565b60005b8381101561019e578082015181840152602081019050610183565b838111156101ad576000848401525b50505050565b6000601f19601f8301169050919050565b61082e806101d36000396000f3fe608060405234801561001057600080fd5b50600436106100365760003560e01c806337ccab171461003b578063cafe877814610057575b600080fd5b6100556004803603810190610050919061052e565b610075565b005b61005f6100ce565b60405161006c91906105b7565b60405180910390f35b806000908051906020019061008b929190610423565b506100cb6040518060400160405280601781526020017f257320686173207570646174656420666f726d756c6121000000000000000000815250336102c2565b50565b60606101996040518060400160405280601281526020017f466f726d756c61206973206e6f773a20257300000000000000000000000000008152506000805461011690610726565b80601f016020809104026020016040519081016040528092919081815260200182805461014290610726565b801561018f5780601f106101645761010080835404028352916020019161018f565b820191906000526020600020905b81548152906001019060200180831161017257829003601f168201915b505050505061035e565b600080546101a690610726565b80601f01602080910402602001604051908101604052809291908181526020018280546101d290610726565b801561021f5780601f106101f45761010080835404028352916020019161021f565b820191906000526020600020905b81548152906001019060200180831161020257829003601f168201915b5050505050905090565b6102bf8160405160240161023d91906105b7565b6040516020818303038152906040527f41304fac000000000000000000000000000000000000000000000000000000007bffffffffffffffffffffffffffffffffffffffffffffffffffffffff19166020820180517bffffffffffffffffffffffffffffffffffffffffffffffffffffffff83818316178352505050506103fa565b50565b61035a82826040516024016102d89291906105d9565b6040516020818303038152906040527f319af333000000000000000000000000000000000000000000000000000000007bffffffffffffffffffffffffffffffffffffffffffffffffffffffff19166020820180517bffffffffffffffffffffffffffffffffffffffffffffffffffffffff83818316178352505050506103fa565b5050565b6103f68282604051602401610374929190610609565b6040516020818303038152906040527f4b5c4277000000000000000000000000000000000000000000000000000000007bffffffffffffffffffffffffffffffffffffffffffffffffffffffff19166020820180517bffffffffffffffffffffffffffffffffffffffffffffffffffffffff83818316178352505050506103fa565b5050565b60008151905060006a636f6e736f6c652e6c6f679050602083016000808483855afa5050505050565b82805461042f90610726565b90600052602060002090601f0160209004810192826104515760008555610498565b82601f1061046a57805160ff1916838001178555610498565b82800160010185558215610498579182015b8281111561049757825182559160200191906001019061047c565b5b5090506104a591906104a9565b5090565b5b808211156104c25760008160009055506001016104aa565b5090565b60006104d96104d484610665565b610640565b9050828152602081018484840111156104f157600080fd5b6104fc8482856106e4565b509392505050565b600082601f83011261051557600080fd5b81356105258482602086016104c6565b91505092915050565b60006020828403121561054057600080fd5b600082013567ffffffffffffffff81111561055a57600080fd5b61056684828501610504565b91505092915050565b610578816106b2565b82525050565b600061058982610696565b61059381856106a1565b93506105a38185602086016106f3565b6105ac816107e7565b840191505092915050565b600060208201905081810360008301526105d1818461057e565b905092915050565b600060408201905081810360008301526105f3818561057e565b9050610602602083018461056f565b9392505050565b60006040820190508181036000830152610623818561057e565b90508181036020830152610637818461057e565b90509392505050565b600061064a61065b565b90506106568282610758565b919050565b6000604051905090565b600067ffffffffffffffff8211156106805761067f6107b8565b5b610689826107e7565b9050602081019050919050565b600081519050919050565b600082825260208201905092915050565b60006106bd826106c4565b9050919050565b600073ffffffffffffffffffffffffffffffffffffffff82169050919050565b82818337600083830152505050565b60005b838110156107115780820151818401526020810190506106f6565b83811115610720576000848401525b50505050565b6000600282049050600182168061073e57607f821691505b6020821081141561075257610751610789565b5b50919050565b610761826107e7565b810181811067ffffffffffffffff821117156107805761077f6107b8565b5b80604052505050565b7f4e487b7100000000000000000000000000000000000000000000000000000000600052602260045260246000fd5b7f4e487b7100000000000000000000000000000000000000000000000000000000600052604160045260246000fd5b6000601f19601f830116905091905056fea2646970667358221220814673adc2b53c4f58ff83bef6126c5ddae9743541cddbcfc3ee2269f3cb48a564736f6c63430008040033596f20796f2c204920616d206120636f6e747261637420616e64204920616d20736d617274",
    "linkReferences": {},
    "deployedLinkReferences": {}
}